{
  "_format": "hh-sol-artifact-1",
  "contractName": "MultisigWallet",
  "sourceName": "contracts/MultisigWallet.sol",
  "abi": [
    {
      "inputs": [
        {
          "internalType": "string",
          "name": "cid_",
          "type": "string"
        }
      ],
      "stateMutability": "nonpayable",
      "type": "constructor"
    },
    {
      "anonymous": false,
      "inputs": [
        {
          "indexed": true,
          "internalType": "address",
          "name": "from",
          "type": "address"
        },
        {
          "indexed": true,
          "internalType": "address",
          "name": "to",
          "type": "address"
        }
      ],
      "name": "Delegate",
      "type": "event"
    },
    {
      "anonymous": false,
      "inputs": [
        {
          "indexed": true,
          "internalType": "address",
          "name": "signer",
          "type": "address"
        }
      ],
      "name": "RevokeDelegation",
      "type": "event"
    },
    {
      "anonymous": false,
      "inputs": [
        {
          "indexed": true,
          "internalType": "address",
          "name": "signerAddress",
          "type": "address"
        },
        {
          "indexed": false,
          "internalType": "string",
          "name": "cid",
          "type": "string"
        }
      ],
      "name": "SignerAdded",
      "type": "event"
    },
    {
      "anonymous": false,
      "inputs": [
        {
          "indexed": false,
          "internalType": "uint256",
          "name": "txnId",
          "type": "uint256"
        },
        {
          "indexed": true,
          "internalType": "address",
          "name": "approver",
          "type": "address"
        }
      ],
      "name": "TransactionApproved",
      "type": "event"
    },
    {
      "anonymous": false,
      "inputs": [
        {
          "indexed": false,
          "internalType": "uint256",
          "name": "txnId",
          "type": "uint256"
        },
        {
          "indexed": true,
          "internalType": "address",
          "name": "to",
          "type": "address"
        },
        {
          "indexed": false,
          "internalType": "uint256",
          "name": "amount",
          "type": "uint256"
        }
      ],
      "name": "TransactionCreated",
      "type": "event"
    },
    {
      "anonymous": false,
      "inputs": [
        {
          "indexed": false,
          "internalType": "uint256",
          "name": "txnId",
          "type": "uint256"
        },
        {
          "indexed": true,
          "internalType": "address",
          "name": "approver",
          "type": "address"
        }
      ],
      "name": "TransactionExecuted",
      "type": "event"
    },
    {
      "anonymous": false,
      "inputs": [
        {
          "indexed": true,
          "internalType": "address",
          "name": "ownerAddress",
          "type": "address"
        },
        {
          "indexed": false,
          "internalType": "string",
          "name": "ownerCid",
          "type": "string"
        }
      ],
      "name": "WalletCreated",
      "type": "event"
    },
    {
      "inputs": [],
      "name": "_lockedBalance",
      "outputs": [
        {
          "internalType": "uint256",
          "name": "",
          "type": "uint256"
        }
      ],
      "stateMutability": "view",
      "type": "function"
    },
    {
      "inputs": [],
      "name": "_owner",
      "outputs": [
        {
          "internalType": "address",
          "name": "",
          "type": "address"
        }
      ],
      "stateMutability": "view",
      "type": "function"
    },
    {
      "inputs": [],
      "name": "_signerCount",
      "outputs": [
        {
          "internalType": "uint256",
          "name": "",
          "type": "uint256"
        }
      ],
      "stateMutability": "view",
      "type": "function"
    },
    {
      "inputs": [],
      "name": "_txnId",
      "outputs": [
        {
          "internalType": "uint256",
          "name": "",
          "type": "uint256"
        }
      ],
      "stateMutability": "view",
      "type": "function"
    },
    {
      "inputs": [
        {
          "internalType": "address",
          "name": "signer_",
          "type": "address"
        },
        {
          "internalType": "string",
          "name": "cid_",
          "type": "string"
        }
      ],
      "name": "addSigner",
      "outputs": [],
      "stateMutability": "nonpayable",
      "type": "function"
    },
    {
      "inputs": [
        {
          "internalType": "uint256",
          "name": "txnId_",
          "type": "uint256"
        }
      ],
      "name": "approveTransaction",
      "outputs": [],
      "stateMutability": "nonpayable",
      "type": "function"
    },
    {
      "inputs": [
        {
          "internalType": "address",
          "name": "to_",
          "type": "address"
        },
        {
          "internalType": "uint256",
          "name": "amount_",
          "type": "uint256"
        }
      ],
      "name": "createTransaction",
      "outputs": [],
      "stateMutability": "nonpayable",
      "type": "function"
    },
    {
      "inputs": [
        {
          "internalType": "address",
          "name": "to_",
          "type": "address"
        }
      ],
      "name": "delegate",
      "outputs": [],
      "stateMutability": "nonpayable",
      "type": "function"
    },
    {
      "inputs": [],
      "name": "revokeDelegation",
      "outputs": [],
      "stateMutability": "nonpayable",
      "type": "function"
    },
    {
      "inputs": [
        {
          "internalType": "address",
          "name": "",
          "type": "address"
        }
      ],
      "name": "signers",
      "outputs": [
        {
          "internalType": "string",
          "name": "cid",
          "type": "string"
        },
        {
          "internalType": "address",
          "name": "delegateTo",
          "type": "address"
        },
        {
          "internalType": "uint256",
          "name": "weight",
          "type": "uint256"
        }
      ],
      "stateMutability": "view",
      "type": "function"
    },
    {
      "inputs": [
        {
          "internalType": "uint256",
          "name": "",
          "type": "uint256"
        }
      ],
      "name": "transactions",
      "outputs": [
        {
          "internalType": "bool",
          "name": "executed",
          "type": "bool"
        },
        {
          "internalType": "address",
          "name": "to",
          "type": "address"
        },
        {
          "internalType": "uint256",
          "name": "amount",
          "type": "uint256"
        },
        {
          "internalType": "uint256",
          "name": "approval",
          "type": "uint256"
        }
      ],
      "stateMutability": "view",
      "type": "function"
    }
  ],
  "bytecode": "0x60806040523480156200001157600080fd5b5060405162002345380380620023458339818101604052810190620000379190620003cc565b336000806101000a81548173ffffffffffffffffffffffffffffffffffffffff021916908373ffffffffffffffffffffffffffffffffffffffff1602179055506001600460003373ffffffffffffffffffffffffffffffffffffffff1673ffffffffffffffffffffffffffffffffffffffff1681526020019081526020016000206002018190555080600460003373ffffffffffffffffffffffffffffffffffffffff1673ffffffffffffffffffffffffffffffffffffffff1681526020019081526020016000206000019080519060200190620001179291906200017f565b50600160028190555060016003819055503373ffffffffffffffffffffffffffffffffffffffff167f03768bb3a703b01cc4c51e2f46596839eef3bdfc4d1dc810c789e342d2f405a7826040516200017091906200047a565b60405180910390a25062000503565b8280546200018d90620004cd565b90600052602060002090601f016020900481019282620001b15760008555620001fd565b82601f10620001cc57805160ff1916838001178555620001fd565b82800160010185558215620001fd579182015b82811115620001fc578251825591602001919060010190620001df565b5b5090506200020c919062000210565b5090565b5b808211156200022b57600081600090555060010162000211565b5090565b6000604051905090565b600080fd5b600080fd5b600080fd5b600080fd5b6000601f19601f8301169050919050565b7f4e487b7100000000000000000000000000000000000000000000000000000000600052604160045260246000fd5b62000298826200024d565b810181811067ffffffffffffffff82111715620002ba57620002b96200025e565b5b80604052505050565b6000620002cf6200022f565b9050620002dd82826200028d565b919050565b600067ffffffffffffffff8211156200030057620002ff6200025e565b5b6200030b826200024d565b9050602081019050919050565b60005b83811015620003385780820151818401526020810190506200031b565b8381111562000348576000848401525b50505050565b6000620003656200035f84620002e2565b620002c3565b90508281526020810184848401111562000384576200038362000248565b5b6200039184828562000318565b509392505050565b600082601f830112620003b157620003b062000243565b5b8151620003c38482602086016200034e565b91505092915050565b600060208284031215620003e557620003e462000239565b5b600082015167ffffffffffffffff8111156200040657620004056200023e565b5b620004148482850162000399565b91505092915050565b600081519050919050565b600082825260208201905092915050565b600062000446826200041d565b62000452818562000428565b93506200046481856020860162000318565b6200046f816200024d565b840191505092915050565b6000602082019050818103600083015262000496818462000439565b905092915050565b7f4e487b7100000000000000000000000000000000000000000000000000000000600052602260045260246000fd5b60006002820490506001821680620004e657607f821691505b60208210811415620004fd57620004fc6200049e565b5b50919050565b611e3280620005136000396000f3fe608060405234801561001057600080fd5b50600436106100a95760003560e01c80635c19a95c116100715780635c19a95c1461013e578063736c0d5b1461015a5780639ace38c21461018c578063a4d31805146101bf578063b2bdfa7b146101c9578063cfb9ce3e146101e7576100a9565b80631e7f8f0f146100ae578063242232d1146100ca57806343df339d146100e657806350f1dedc1461010257806358d478c414610120575b600080fd5b6100c860048036038101906100c39190611593565b610205565b005b6100e460048036038101906100df91906115d3565b61047d565b005b61010060048036038101906100fb9190611746565b6105a9565b005b61010a6107c7565b60405161011791906117b1565b60405180910390f35b6101286107cd565b60405161013591906117b1565b60405180910390f35b610158600480360381019061015391906117cc565b6107d3565b005b610174600480360381019061016f91906117cc565b610d07565b60405161018393929190611890565b60405180910390f35b6101a660048036038101906101a191906115d3565b610dd9565b6040516101b694939291906118e9565b60405180910390f35b6101c7610e36565b005b6101d1611111565b6040516101de919061192e565b60405180910390f35b6101ef611135565b6040516101fc91906117b1565b60405180910390f35b6000600460003373ffffffffffffffffffffffffffffffffffffffff1673ffffffffffffffffffffffffffffffffffffffff168152602001908152602001600020600201541180156102e55750600073ffffffffffffffffffffffffffffffffffffffff16600460003373ffffffffffffffffffffffffffffffffffffffff1673ffffffffffffffffffffffffffffffffffffffff16815260200190815260200160002060010160009054906101000a900473ffffffffffffffffffffffffffffffffffffffff1673ffffffffffffffffffffffffffffffffffffffff16145b610324576040517f08c379a000000000000000000000000000000000000000000000000000000000815260040161031b90611995565b60405180910390fd5b806001544761033391906119e4565b1015610374576040517f08c379a000000000000000000000000000000000000000000000000000000000815260040161036b90611a64565b60405180910390fd5b8160056000600254815260200190815260200160002060000160016101000a81548173ffffffffffffffffffffffffffffffffffffffff021916908373ffffffffffffffffffffffffffffffffffffffff160217905550806005600060025481526020019081526020016000206001018190555080600160008282546103fa9190611a84565b925050819055508173ffffffffffffffffffffffffffffffffffffffff167ffd27d176b6ebb21e0182c0e43df5818e0d632867e1eb47c383c58d221205fce36002548360405161044b929190611ada565b60405180910390a261045f6002543361113b565b6001600260008282546104729190611a84565b925050819055505050565b6000600460003373ffffffffffffffffffffffffffffffffffffffff1673ffffffffffffffffffffffffffffffffffffffff1681526020019081526020016000206002015411801561055d5750600073ffffffffffffffffffffffffffffffffffffffff16600460003373ffffffffffffffffffffffffffffffffffffffff1673ffffffffffffffffffffffffffffffffffffffff16815260200190815260200160002060010160009054906101000a900473ffffffffffffffffffffffffffffffffffffffff1673ffffffffffffffffffffffffffffffffffffffff16145b61059c576040517f08c379a000000000000000000000000000000000000000000000000000000000815260040161059390611995565b60405180910390fd5b6105a6813361113b565b50565b60008054906101000a900473ffffffffffffffffffffffffffffffffffffffff1673ffffffffffffffffffffffffffffffffffffffff163373ffffffffffffffffffffffffffffffffffffffff1614610637576040517f08c379a000000000000000000000000000000000000000000000000000000000815260040161062e90611b4f565b60405180910390fd5b6000600460008473ffffffffffffffffffffffffffffffffffffffff1673ffffffffffffffffffffffffffffffffffffffff16815260200190815260200160002060020154146106bc576040517f08c379a00000000000000000000000000000000000000000000000000000000081526004016106b390611bbb565b60405180910390fd5b80600460008473ffffffffffffffffffffffffffffffffffffffff1673ffffffffffffffffffffffffffffffffffffffff1681526020019081526020016000206000019080519060200190610712929190611448565b506001600460008473ffffffffffffffffffffffffffffffffffffffff1673ffffffffffffffffffffffffffffffffffffffff1681526020019081526020016000206002018190555060016003600082825461076e9190611a84565b925050819055508173ffffffffffffffffffffffffffffffffffffffff167f2199278f069da67f8a6f18e5385287f75df6fa350824d93f6bfa936406435728826040516107bb9190611bdb565b60405180910390a25050565b60035481565b60015481565b6000600460003373ffffffffffffffffffffffffffffffffffffffff1673ffffffffffffffffffffffffffffffffffffffff168152602001908152602001600020600201541180156108b35750600073ffffffffffffffffffffffffffffffffffffffff16600460003373ffffffffffffffffffffffffffffffffffffffff1673ffffffffffffffffffffffffffffffffffffffff16815260200190815260200160002060010160009054906101000a900473ffffffffffffffffffffffffffffffffffffffff1673ffffffffffffffffffffffffffffffffffffffff16145b6108f2576040517f08c379a00000000000000000000000000000000000000000000000000000000081526004016108e990611995565b60405180910390fd5b6000600460008373ffffffffffffffffffffffffffffffffffffffff1673ffffffffffffffffffffffffffffffffffffffff1681526020019081526020016000206002015411610977576040517f08c379a000000000000000000000000000000000000000000000000000000000815260040161096e90611c49565b60405180910390fd5b3373ffffffffffffffffffffffffffffffffffffffff168173ffffffffffffffffffffffffffffffffffffffff1614156109e6576040517f08c379a00000000000000000000000000000000000000000000000000000000081526004016109dd90611cb5565b60405180910390fd5b6000600460003373ffffffffffffffffffffffffffffffffffffffff1673ffffffffffffffffffffffffffffffffffffffff168152602001908152602001600020905060008290505b600073ffffffffffffffffffffffffffffffffffffffff16600460008373ffffffffffffffffffffffffffffffffffffffff1673ffffffffffffffffffffffffffffffffffffffff16815260200190815260200160002060010160009054906101000a900473ffffffffffffffffffffffffffffffffffffffff1673ffffffffffffffffffffffffffffffffffffffff1614610b9e57600460008273ffffffffffffffffffffffffffffffffffffffff1673ffffffffffffffffffffffffffffffffffffffff16815260200190815260200160002060010160009054906101000a900473ffffffffffffffffffffffffffffffffffffffff1690503373ffffffffffffffffffffffffffffffffffffffff168173ffffffffffffffffffffffffffffffffffffffff161415610b99576040517f08c379a0000000000000000000000000000000000000000000000000000000008152600401610b9090611d21565b60405180910390fd5b610a2f565b8290505b600073ffffffffffffffffffffffffffffffffffffffff168173ffffffffffffffffffffffffffffffffffffffff1614610c65576000600460008373ffffffffffffffffffffffffffffffffffffffff1673ffffffffffffffffffffffffffffffffffffffff16815260200190815260200160002090508260020154816002016000828254610c319190611a84565b925050819055508060010160009054906101000a900473ffffffffffffffffffffffffffffffffffffffff16915050610ba2565b828260010160006101000a81548173ffffffffffffffffffffffffffffffffffffffff021916908373ffffffffffffffffffffffffffffffffffffffff1602179055508273ffffffffffffffffffffffffffffffffffffffff163373ffffffffffffffffffffffffffffffffffffffff167fab7d75eccd27c9989942a3a6e4137e415df0ad90ec428751b16361f16fe8780f60405160405180910390a3505050565b6004602052806000526040600020600091509050806000018054610d2a90611d70565b80601f0160208091040260200160405190810160405280929190818152602001828054610d5690611d70565b8015610da35780601f10610d7857610100808354040283529160200191610da3565b820191906000526020600020905b815481529060010190602001808311610d8657829003601f168201915b5050505050908060010160009054906101000a900473ffffffffffffffffffffffffffffffffffffffff16908060020154905083565b60056020528060005260406000206000915090508060000160009054906101000a900460ff16908060000160019054906101000a900473ffffffffffffffffffffffffffffffffffffffff16908060010154908060020154905084565b6000600460003373ffffffffffffffffffffffffffffffffffffffff1673ffffffffffffffffffffffffffffffffffffffff16815260200190815260200160002060020154118015610f175750600073ffffffffffffffffffffffffffffffffffffffff16600460003373ffffffffffffffffffffffffffffffffffffffff1673ffffffffffffffffffffffffffffffffffffffff16815260200190815260200160002060010160009054906101000a900473ffffffffffffffffffffffffffffffffffffffff1673ffffffffffffffffffffffffffffffffffffffff1614155b610f56576040517f08c379a0000000000000000000000000000000000000000000000000000000008152600401610f4d90611995565b60405180910390fd5b6000600460003373ffffffffffffffffffffffffffffffffffffffff1673ffffffffffffffffffffffffffffffffffffffff168152602001908152602001600020905060008160010160009054906101000a900473ffffffffffffffffffffffffffffffffffffffff1690505b600073ffffffffffffffffffffffffffffffffffffffff168173ffffffffffffffffffffffffffffffffffffffff1614611086576000600460008373ffffffffffffffffffffffffffffffffffffffff1673ffffffffffffffffffffffffffffffffffffffff1681526020019081526020016000209050826002015481600201600082825461105291906119e4565b925050819055508060010160009054906101000a900473ffffffffffffffffffffffffffffffffffffffff16915050610fc3565b60008260010160006101000a81548173ffffffffffffffffffffffffffffffffffffffff021916908373ffffffffffffffffffffffffffffffffffffffff1602179055503373ffffffffffffffffffffffffffffffffffffffff167f7863f280981e271cbf21a2e5083b0f960312e7c7de9e544372bd73c8b9fbc3c060405160405180910390a25050565b60008054906101000a900473ffffffffffffffffffffffffffffffffffffffff1681565b60025481565b6000600460008373ffffffffffffffffffffffffffffffffffffffff1673ffffffffffffffffffffffffffffffffffffffff16815260200190815260200160002060405180606001604052908160008201805461119790611d70565b80601f01602080910402602001604051908101604052809291908181526020018280546111c390611d70565b80156112105780601f106111e557610100808354040283529160200191611210565b820191906000526020600020905b8154815290600101906020018083116111f357829003601f168201915b505050505081526020016001820160009054906101000a900473ffffffffffffffffffffffffffffffffffffffff1673ffffffffffffffffffffffffffffffffffffffff1673ffffffffffffffffffffffffffffffffffffffff1681526020016002820154815250509050600060056000858152602001908152602001600020905081604001518160020160008282546112aa9190611a84565b925050819055508273ffffffffffffffffffffffffffffffffffffffff167f924813d717e221b5f46dcd8a56da1679e4612584ab3237d55e5faabf6f6a3079856040516112f791906117b1565b60405180910390a2600354603361130e9190611da2565b6064826002015461131f9190611da2565b1061132f5761132e8484611335565b5b50505050565b60006005600084815260200190815260200160002090508060000160019054906101000a900473ffffffffffffffffffffffffffffffffffffffff1673ffffffffffffffffffffffffffffffffffffffff166108fc82600101549081150290604051600060405180830381858888f193505050501580156113ba573d6000803e3d6000fd5b5060018160000160006101000a81548160ff0219169083151502179055508060010154600160008282546113ee91906119e4565b925050819055508173ffffffffffffffffffffffffffffffffffffffff167fefc13bdcf58f184ea7cae26b499fb33b539e01d0197cea456f3ada289b8cf19b8460405161143b91906117b1565b60405180910390a2505050565b82805461145490611d70565b90600052602060002090601f01602090048101928261147657600085556114bd565b82601f1061148f57805160ff19168380011785556114bd565b828001600101855582156114bd579182015b828111156114bc5782518255916020019190600101906114a1565b5b5090506114ca91906114ce565b5090565b5b808211156114e75760008160009055506001016114cf565b5090565b6000604051905090565b600080fd5b600080fd5b600073ffffffffffffffffffffffffffffffffffffffff82169050919050565b600061152a826114ff565b9050919050565b61153a8161151f565b811461154557600080fd5b50565b60008135905061155781611531565b92915050565b6000819050919050565b6115708161155d565b811461157b57600080fd5b50565b60008135905061158d81611567565b92915050565b600080604083850312156115aa576115a96114f5565b5b60006115b885828601611548565b92505060206115c98582860161157e565b9150509250929050565b6000602082840312156115e9576115e86114f5565b5b60006115f78482850161157e565b91505092915050565b600080fd5b600080fd5b6000601f19601f8301169050919050565b7f4e487b7100000000000000000000000000000000000000000000000000000000600052604160045260246000fd5b6116538261160a565b810181811067ffffffffffffffff821117156116725761167161161b565b5b80604052505050565b60006116856114eb565b9050611691828261164a565b919050565b600067ffffffffffffffff8211156116b1576116b061161b565b5b6116ba8261160a565b9050602081019050919050565b82818337600083830152505050565b60006116e96116e484611696565b61167b565b90508281526020810184848401111561170557611704611605565b5b6117108482856116c7565b509392505050565b600082601f83011261172d5761172c611600565b5b813561173d8482602086016116d6565b91505092915050565b6000806040838503121561175d5761175c6114f5565b5b600061176b85828601611548565b925050602083013567ffffffffffffffff81111561178c5761178b6114fa565b5b61179885828601611718565b9150509250929050565b6117ab8161155d565b82525050565b60006020820190506117c660008301846117a2565b92915050565b6000602082840312156117e2576117e16114f5565b5b60006117f084828501611548565b91505092915050565b600081519050919050565b600082825260208201905092915050565b60005b83811015611833578082015181840152602081019050611818565b83811115611842576000848401525b50505050565b6000611853826117f9565b61185d8185611804565b935061186d818560208601611815565b6118768161160a565b840191505092915050565b61188a8161151f565b82525050565b600060608201905081810360008301526118aa8186611848565b90506118b96020830185611881565b6118c660408301846117a2565b949350505050565b60008115159050919050565b6118e3816118ce565b82525050565b60006080820190506118fe60008301876118da565b61190b6020830186611881565b61191860408301856117a2565b61192560608301846117a2565b95945050505050565b60006020820190506119436000830184611881565b92915050565b7f496e76616c696420726571756573742e00000000000000000000000000000000600082015250565b600061197f601083611804565b915061198a82611949565b602082019050919050565b600060208201905081810360008301526119ae81611972565b9050919050565b7f4e487b7100000000000000000000000000000000000000000000000000000000600052601160045260246000fd5b60006119ef8261155d565b91506119fa8361155d565b925082821015611a0d57611a0c6119b5565b5b828203905092915050565b7f496e73756666696369656e742062616c616e636520696e2077616c6c65742e00600082015250565b6000611a4e601f83611804565b9150611a5982611a18565b602082019050919050565b60006020820190508181036000830152611a7d81611a41565b9050919050565b6000611a8f8261155d565b9150611a9a8361155d565b9250827fffffffffffffffffffffffffffffffffffffffffffffffffffffffffffffffff03821115611acf57611ace6119b5565b5b828201905092915050565b6000604082019050611aef60008301856117a2565b611afc60208301846117a2565b9392505050565b7f4f6e6c79204f776e65722063616e20616464205369676e65722e000000000000600082015250565b6000611b39601a83611804565b9150611b4482611b03565b602082019050919050565b60006020820190508181036000830152611b6881611b2c565b9050919050565b7f5369676e657220616c72656164792061646465642e0000000000000000000000600082015250565b6000611ba5601583611804565b9150611bb082611b6f565b602082019050919050565b60006020820190508181036000830152611bd481611b98565b9050919050565b60006020820190508181036000830152611bf58184611848565b905092915050565b7f496e76616c69642064656c65676174652e000000000000000000000000000000600082015250565b6000611c33601183611804565b9150611c3e82611bfd565b602082019050919050565b60006020820190508181036000830152611c6281611c26565b9050919050565b7f53656c662d64656c65676174696f6e20697320646973616c6c6f7765642e0000600082015250565b6000611c9f601e83611804565b9150611caa82611c69565b602082019050919050565b60006020820190508181036000830152611cce81611c92565b9050919050565b7f466f756e64206c6f6f7020696e2064656c65676174696f6e2e00000000000000600082015250565b6000611d0b601983611804565b9150611d1682611cd5565b602082019050919050565b60006020820190508181036000830152611d3a81611cfe565b9050919050565b7f4e487b7100000000000000000000000000000000000000000000000000000000600052602260045260246000fd5b60006002820490506001821680611d8857607f821691505b60208210811415611d9c57611d9b611d41565b5b50919050565b6000611dad8261155d565b9150611db88361155d565b9250817fffffffffffffffffffffffffffffffffffffffffffffffffffffffffffffffff0483118215151615611df157611df06119b5565b5b82820290509291505056fea2646970667358221220b26f3d5320488dc25d6922476cd2e85160c876526b70901ae3b7cfa99a5434d164736f6c63430008090033",
  "linkReferences": {},
  "deployedLinkReferences": {}
}