{
    "_format": "hh-sol-artifact-1",
    "contractName": "MultisigWallet",
    "sourceName": "contracts/MultisigWallet.sol",
    "abi": [
        {
            "inputs": [
                {
                    "internalType": "string",
                    "name": "cid_",
                    "type": "string"
                }
            ],
            "stateMutability": "nonpayable",
            "type": "constructor"
        },
        {
            "anonymous": false,
            "inputs": [
                {
                    "indexed": true,
                    "internalType": "address",
                    "name": "from",
                    "type": "address"
                },
                {
                    "indexed": true,
                    "internalType": "address",
                    "name": "to",
                    "type": "address"
                }
            ],
            "name": "Delegate",
            "type": "event"
        },
        {
            "anonymous": false,
            "inputs": [
                {
                    "indexed": true,
                    "internalType": "address",
                    "name": "signer",
                    "type": "address"
                }
            ],
            "name": "RevokeDelegation",
            "type": "event"
        },
        {
            "anonymous": false,
            "inputs": [
                {
                    "indexed": true,
                    "internalType": "address",
                    "name": "signerAddress",
                    "type": "address"
                },
                {
                    "indexed": false,
                    "internalType": "string",
                    "name": "cid",
                    "type": "string"
                }
            ],
            "name": "SignerAdded",
            "type": "event"
        },
        {
            "anonymous": false,
            "inputs": [
                {
                    "indexed": false,
                    "internalType": "uint256",
                    "name": "txnId",
                    "type": "uint256"
                },
                {
                    "indexed": true,
                    "internalType": "address",
                    "name": "approver",
                    "type": "address"
                }
            ],
            "name": "TransactionApproved",
            "type": "event"
        },
        {
            "anonymous": false,
            "inputs": [
                {
                    "indexed": false,
                    "internalType": "uint256",
                    "name": "txnId",
                    "type": "uint256"
                },
                {
                    "indexed": true,
                    "internalType": "address",
                    "name": "to",
                    "type": "address"
                },
                {
                    "indexed": false,
                    "internalType": "uint256",
                    "name": "amount",
                    "type": "uint256"
                }
            ],
            "name": "TransactionCreated",
            "type": "event"
        },
        {
            "anonymous": false,
            "inputs": [
                {
                    "indexed": false,
                    "internalType": "uint256",
                    "name": "txnId",
                    "type": "uint256"
                },
                {
                    "indexed": true,
                    "internalType": "address",
                    "name": "approver",
                    "type": "address"
                }
            ],
            "name": "TransactionExecuted",
            "type": "event"
        },
        {
            "anonymous": false,
            "inputs": [
                {
                    "indexed": true,
                    "internalType": "address",
                    "name": "ownerAddress",
                    "type": "address"
                },
                {
                    "indexed": false,
                    "internalType": "string",
                    "name": "ownerCid",
                    "type": "string"
                }
            ],
            "name": "WalletCreated",
            "type": "event"
        },
        {
            "inputs": [],
            "name": "_lockedBalance",
            "outputs": [
                {
                    "internalType": "uint256",
                    "name": "",
                    "type": "uint256"
                }
            ],
            "stateMutability": "view",
            "type": "function"
        },
        {
            "inputs": [],
            "name": "_owner",
            "outputs": [
                {
                    "internalType": "address",
                    "name": "",
                    "type": "address"
                }
            ],
            "stateMutability": "view",
            "type": "function"
        },
        {
            "inputs": [],
            "name": "_signerCount",
            "outputs": [
                {
                    "internalType": "uint256",
                    "name": "",
                    "type": "uint256"
                }
            ],
            "stateMutability": "view",
            "type": "function"
        },
        {
            "inputs": [],
            "name": "_txnId",
            "outputs": [
                {
                    "internalType": "uint256",
                    "name": "",
                    "type": "uint256"
                }
            ],
            "stateMutability": "view",
            "type": "function"
        },
        {
            "inputs": [
                {
                    "internalType": "address",
                    "name": "signer_",
                    "type": "address"
                },
                {
                    "internalType": "string",
                    "name": "cid_",
                    "type": "string"
                }
            ],
            "name": "addSigner",
            "outputs": [],
            "stateMutability": "nonpayable",
            "type": "function"
        },
        {
            "inputs": [
                {
                    "internalType": "uint256",
                    "name": "txnId_",
                    "type": "uint256"
                }
            ],
            "name": "approveTransaction",
            "outputs": [],
            "stateMutability": "nonpayable",
            "type": "function"
        },
        {
            "inputs": [
                {
                    "internalType": "address",
                    "name": "to_",
                    "type": "address"
                },
                {
                    "internalType": "uint256",
                    "name": "amount_",
                    "type": "uint256"
                }
            ],
            "name": "createTransaction",
            "outputs": [],
            "stateMutability": "nonpayable",
            "type": "function"
        },
        {
            "inputs": [
                {
                    "internalType": "address",
                    "name": "to_",
                    "type": "address"
                }
            ],
            "name": "delegate",
            "outputs": [],
            "stateMutability": "nonpayable",
            "type": "function"
        },
        {
            "inputs": [],
            "name": "deposit",
            "outputs": [],
            "stateMutability": "payable",
            "type": "function"
        },
        {
            "inputs": [],
            "name": "revokeDelegation",
            "outputs": [],
            "stateMutability": "nonpayable",
            "type": "function"
        },
        {
            "inputs": [
                {
                    "internalType": "address",
                    "name": "",
                    "type": "address"
                }
            ],
            "name": "signers",
            "outputs": [
                {
                    "internalType": "string",
                    "name": "cid",
                    "type": "string"
                },
                {
                    "internalType": "address",
                    "name": "delegateTo",
                    "type": "address"
                },
                {
                    "internalType": "uint256",
                    "name": "weight",
                    "type": "uint256"
                }
            ],
            "stateMutability": "view",
            "type": "function"
        },
        {
            "inputs": [
                {
                    "internalType": "uint256",
                    "name": "",
                    "type": "uint256"
                }
            ],
            "name": "transactions",
            "outputs": [
                {
                    "internalType": "bool",
                    "name": "executed",
                    "type": "bool"
                },
                {
                    "internalType": "address",
                    "name": "to",
                    "type": "address"
                },
                {
                    "internalType": "uint256",
                    "name": "amount",
                    "type": "uint256"
                },
                {
                    "internalType": "uint256",
                    "name": "approval",
                    "type": "uint256"
                }
            ],
            "stateMutability": "view",
            "type": "function"
        }
    ],
    "bytecode": "0x60806040523480156200001157600080fd5b50604051620023de380380620023de8339818101604052810190620000379190620003cc565b336000806101000a81548173ffffffffffffffffffffffffffffffffffffffff021916908373ffffffffffffffffffffffffffffffffffffffff1602179055506001600460003373ffffffffffffffffffffffffffffffffffffffff1673ffffffffffffffffffffffffffffffffffffffff1681526020019081526020016000206002018190555080600460003373ffffffffffffffffffffffffffffffffffffffff1673ffffffffffffffffffffffffffffffffffffffff1681526020019081526020016000206000019080519060200190620001179291906200017f565b50600160028190555060016003819055503373ffffffffffffffffffffffffffffffffffffffff167f03768bb3a703b01cc4c51e2f46596839eef3bdfc4d1dc810c789e342d2f405a7826040516200017091906200047a565b60405180910390a25062000503565b8280546200018d90620004cd565b90600052602060002090601f016020900481019282620001b15760008555620001fd565b82601f10620001cc57805160ff1916838001178555620001fd565b82800160010185558215620001fd579182015b82811115620001fc578251825591602001919060010190620001df565b5b5090506200020c919062000210565b5090565b5b808211156200022b57600081600090555060010162000211565b5090565b6000604051905090565b600080fd5b600080fd5b600080fd5b600080fd5b6000601f19601f8301169050919050565b7f4e487b7100000000000000000000000000000000000000000000000000000000600052604160045260246000fd5b62000298826200024d565b810181811067ffffffffffffffff82111715620002ba57620002b96200025e565b5b80604052505050565b6000620002cf6200022f565b9050620002dd82826200028d565b919050565b600067ffffffffffffffff8211156200030057620002ff6200025e565b5b6200030b826200024d565b9050602081019050919050565b60005b83811015620003385780820151818401526020810190506200031b565b8381111562000348576000848401525b50505050565b6000620003656200035f84620002e2565b620002c3565b90508281526020810184848401111562000384576200038362000248565b5b6200039184828562000318565b509392505050565b600082601f830112620003b157620003b062000243565b5b8151620003c38482602086016200034e565b91505092915050565b600060208284031215620003e557620003e462000239565b5b600082015167ffffffffffffffff8111156200040657620004056200023e565b5b620004148482850162000399565b91505092915050565b600081519050919050565b600082825260208201905092915050565b600062000446826200041d565b62000452818562000428565b93506200046481856020860162000318565b6200046f816200024d565b840191505092915050565b6000602082019050818103600083015262000496818462000439565b905092915050565b7f4e487b7100000000000000000000000000000000000000000000000000000000600052602260045260246000fd5b60006002820490506001821680620004e657607f821691505b60208210811415620004fd57620004fc6200049e565b5b50919050565b611ecb80620005136000396000f3fe6080604052600436106100a75760003560e01c8063736c0d5b11610064578063736c0d5b146101a65780639ace38c2146101e5578063a4d3180514610225578063b2bdfa7b1461023c578063cfb9ce3e14610267578063d0e30db014610292576100a7565b80631e7f8f0f146100ac578063242232d1146100d557806343df339d146100fe57806350f1dedc1461012757806358d478c4146101525780635c19a95c1461017d575b600080fd5b3480156100b857600080fd5b506100d360048036038101906100ce919061162c565b61029c565b005b3480156100e157600080fd5b506100fc60048036038101906100f7919061166c565b610514565b005b34801561010a57600080fd5b50610125600480360381019061012091906117df565b610640565b005b34801561013357600080fd5b5061013c61085e565b604051610149919061184a565b60405180910390f35b34801561015e57600080fd5b50610167610864565b604051610174919061184a565b60405180910390f35b34801561018957600080fd5b506101a4600480360381019061019f9190611865565b61086a565b005b3480156101b257600080fd5b506101cd60048036038101906101c89190611865565b610d9e565b6040516101dc93929190611929565b60405180910390f35b3480156101f157600080fd5b5061020c6004803603810190610207919061166c565b610e70565b60405161021c9493929190611982565b60405180910390f35b34801561023157600080fd5b5061023a610ecd565b005b34801561024857600080fd5b506102516111a8565b60405161025e91906119c7565b60405180910390f35b34801561027357600080fd5b5061027c6111cc565b604051610289919061184a565b60405180910390f35b61029a6111d2565b005b6000600460003373ffffffffffffffffffffffffffffffffffffffff1673ffffffffffffffffffffffffffffffffffffffff1681526020019081526020016000206002015411801561037c5750600073ffffffffffffffffffffffffffffffffffffffff16600460003373ffffffffffffffffffffffffffffffffffffffff1673ffffffffffffffffffffffffffffffffffffffff16815260200190815260200160002060010160009054906101000a900473ffffffffffffffffffffffffffffffffffffffff1673ffffffffffffffffffffffffffffffffffffffff16145b6103bb576040517f08c379a00000000000000000000000000000000000000000000000000000000081526004016103b290611a2e565b60405180910390fd5b80600154476103ca9190611a7d565b101561040b576040517f08c379a000000000000000000000000000000000000000000000000000000000815260040161040290611afd565b60405180910390fd5b8160056000600254815260200190815260200160002060000160016101000a81548173ffffffffffffffffffffffffffffffffffffffff021916908373ffffffffffffffffffffffffffffffffffffffff160217905550806005600060025481526020019081526020016000206001018190555080600160008282546104919190611b1d565b925050819055508173ffffffffffffffffffffffffffffffffffffffff167ffd27d176b6ebb21e0182c0e43df5818e0d632867e1eb47c383c58d221205fce3600254836040516104e2929190611b73565b60405180910390a26104f6600254336111d4565b6001600260008282546105099190611b1d565b925050819055505050565b6000600460003373ffffffffffffffffffffffffffffffffffffffff1673ffffffffffffffffffffffffffffffffffffffff168152602001908152602001600020600201541180156105f45750600073ffffffffffffffffffffffffffffffffffffffff16600460003373ffffffffffffffffffffffffffffffffffffffff1673ffffffffffffffffffffffffffffffffffffffff16815260200190815260200160002060010160009054906101000a900473ffffffffffffffffffffffffffffffffffffffff1673ffffffffffffffffffffffffffffffffffffffff16145b610633576040517f08c379a000000000000000000000000000000000000000000000000000000000815260040161062a90611a2e565b60405180910390fd5b61063d81336111d4565b50565b60008054906101000a900473ffffffffffffffffffffffffffffffffffffffff1673ffffffffffffffffffffffffffffffffffffffff163373ffffffffffffffffffffffffffffffffffffffff16146106ce576040517f08c379a00000000000000000000000000000000000000000000000000000000081526004016106c590611be8565b60405180910390fd5b6000600460008473ffffffffffffffffffffffffffffffffffffffff1673ffffffffffffffffffffffffffffffffffffffff1681526020019081526020016000206002015414610753576040517f08c379a000000000000000000000000000000000000000000000000000000000815260040161074a90611c54565b60405180910390fd5b80600460008473ffffffffffffffffffffffffffffffffffffffff1673ffffffffffffffffffffffffffffffffffffffff16815260200190815260200160002060000190805190602001906107a99291906114e1565b506001600460008473ffffffffffffffffffffffffffffffffffffffff1673ffffffffffffffffffffffffffffffffffffffff168152602001908152602001600020600201819055506001600360008282546108059190611b1d565b925050819055508173ffffffffffffffffffffffffffffffffffffffff167f2199278f069da67f8a6f18e5385287f75df6fa350824d93f6bfa936406435728826040516108529190611c74565b60405180910390a25050565b60035481565b60015481565b6000600460003373ffffffffffffffffffffffffffffffffffffffff1673ffffffffffffffffffffffffffffffffffffffff1681526020019081526020016000206002015411801561094a5750600073ffffffffffffffffffffffffffffffffffffffff16600460003373ffffffffffffffffffffffffffffffffffffffff1673ffffffffffffffffffffffffffffffffffffffff16815260200190815260200160002060010160009054906101000a900473ffffffffffffffffffffffffffffffffffffffff1673ffffffffffffffffffffffffffffffffffffffff16145b610989576040517f08c379a000000000000000000000000000000000000000000000000000000000815260040161098090611a2e565b60405180910390fd5b6000600460008373ffffffffffffffffffffffffffffffffffffffff1673ffffffffffffffffffffffffffffffffffffffff1681526020019081526020016000206002015411610a0e576040517f08c379a0000000000000000000000000000000000000000000000000000000008152600401610a0590611ce2565b60405180910390fd5b3373ffffffffffffffffffffffffffffffffffffffff168173ffffffffffffffffffffffffffffffffffffffff161415610a7d576040517f08c379a0000000000000000000000000000000000000000000000000000000008152600401610a7490611d4e565b60405180910390fd5b6000600460003373ffffffffffffffffffffffffffffffffffffffff1673ffffffffffffffffffffffffffffffffffffffff168152602001908152602001600020905060008290505b600073ffffffffffffffffffffffffffffffffffffffff16600460008373ffffffffffffffffffffffffffffffffffffffff1673ffffffffffffffffffffffffffffffffffffffff16815260200190815260200160002060010160009054906101000a900473ffffffffffffffffffffffffffffffffffffffff1673ffffffffffffffffffffffffffffffffffffffff1614610c3557600460008273ffffffffffffffffffffffffffffffffffffffff1673ffffffffffffffffffffffffffffffffffffffff16815260200190815260200160002060010160009054906101000a900473ffffffffffffffffffffffffffffffffffffffff1690503373ffffffffffffffffffffffffffffffffffffffff168173ffffffffffffffffffffffffffffffffffffffff161415610c30576040517f08c379a0000000000000000000000000000000000000000000000000000000008152600401610c2790611dba565b60405180910390fd5b610ac6565b8290505b600073ffffffffffffffffffffffffffffffffffffffff168173ffffffffffffffffffffffffffffffffffffffff1614610cfc576000600460008373ffffffffffffffffffffffffffffffffffffffff1673ffffffffffffffffffffffffffffffffffffffff16815260200190815260200160002090508260020154816002016000828254610cc89190611b1d565b925050819055508060010160009054906101000a900473ffffffffffffffffffffffffffffffffffffffff16915050610c39565b828260010160006101000a81548173ffffffffffffffffffffffffffffffffffffffff021916908373ffffffffffffffffffffffffffffffffffffffff1602179055508273ffffffffffffffffffffffffffffffffffffffff163373ffffffffffffffffffffffffffffffffffffffff167fab7d75eccd27c9989942a3a6e4137e415df0ad90ec428751b16361f16fe8780f60405160405180910390a3505050565b6004602052806000526040600020600091509050806000018054610dc190611e09565b80601f0160208091040260200160405190810160405280929190818152602001828054610ded90611e09565b8015610e3a5780601f10610e0f57610100808354040283529160200191610e3a565b820191906000526020600020905b815481529060010190602001808311610e1d57829003601f168201915b5050505050908060010160009054906101000a900473ffffffffffffffffffffffffffffffffffffffff16908060020154905083565b60056020528060005260406000206000915090508060000160009054906101000a900460ff16908060000160019054906101000a900473ffffffffffffffffffffffffffffffffffffffff16908060010154908060020154905084565b6000600460003373ffffffffffffffffffffffffffffffffffffffff1673ffffffffffffffffffffffffffffffffffffffff16815260200190815260200160002060020154118015610fae5750600073ffffffffffffffffffffffffffffffffffffffff16600460003373ffffffffffffffffffffffffffffffffffffffff1673ffffffffffffffffffffffffffffffffffffffff16815260200190815260200160002060010160009054906101000a900473ffffffffffffffffffffffffffffffffffffffff1673ffffffffffffffffffffffffffffffffffffffff1614155b610fed576040517f08c379a0000000000000000000000000000000000000000000000000000000008152600401610fe490611a2e565b60405180910390fd5b6000600460003373ffffffffffffffffffffffffffffffffffffffff1673ffffffffffffffffffffffffffffffffffffffff168152602001908152602001600020905060008160010160009054906101000a900473ffffffffffffffffffffffffffffffffffffffff1690505b600073ffffffffffffffffffffffffffffffffffffffff168173ffffffffffffffffffffffffffffffffffffffff161461111d576000600460008373ffffffffffffffffffffffffffffffffffffffff1673ffffffffffffffffffffffffffffffffffffffff168152602001908152602001600020905082600201548160020160008282546110e99190611a7d565b925050819055508060010160009054906101000a900473ffffffffffffffffffffffffffffffffffffffff1691505061105a565b60008260010160006101000a81548173ffffffffffffffffffffffffffffffffffffffff021916908373ffffffffffffffffffffffffffffffffffffffff1602179055503373ffffffffffffffffffffffffffffffffffffffff167f7863f280981e271cbf21a2e5083b0f960312e7c7de9e544372bd73c8b9fbc3c060405160405180910390a25050565b60008054906101000a900473ffffffffffffffffffffffffffffffffffffffff1681565b60025481565b565b6000600460008373ffffffffffffffffffffffffffffffffffffffff1673ffffffffffffffffffffffffffffffffffffffff16815260200190815260200160002060405180606001604052908160008201805461123090611e09565b80601f016020809104026020016040519081016040528092919081815260200182805461125c90611e09565b80156112a95780601f1061127e576101008083540402835291602001916112a9565b820191906000526020600020905b81548152906001019060200180831161128c57829003601f168201915b505050505081526020016001820160009054906101000a900473ffffffffffffffffffffffffffffffffffffffff1673ffffffffffffffffffffffffffffffffffffffff1673ffffffffffffffffffffffffffffffffffffffff1681526020016002820154815250509050600060056000858152602001908152602001600020905081604001518160020160008282546113439190611b1d565b925050819055508273ffffffffffffffffffffffffffffffffffffffff167f924813d717e221b5f46dcd8a56da1679e4612584ab3237d55e5faabf6f6a307985604051611390919061184a565b60405180910390a260035460336113a79190611e3b565b606482600201546113b89190611e3b565b106113c8576113c784846113ce565b5b50505050565b60006005600084815260200190815260200160002090508060000160019054906101000a900473ffffffffffffffffffffffffffffffffffffffff1673ffffffffffffffffffffffffffffffffffffffff166108fc82600101549081150290604051600060405180830381858888f19350505050158015611453573d6000803e3d6000fd5b5060018160000160006101000a81548160ff0219169083151502179055508060010154600160008282546114879190611a7d565b925050819055508173ffffffffffffffffffffffffffffffffffffffff167fefc13bdcf58f184ea7cae26b499fb33b539e01d0197cea456f3ada289b8cf19b846040516114d4919061184a565b60405180910390a2505050565b8280546114ed90611e09565b90600052602060002090601f01602090048101928261150f5760008555611556565b82601f1061152857805160ff1916838001178555611556565b82800160010185558215611556579182015b8281111561155557825182559160200191906001019061153a565b5b5090506115639190611567565b5090565b5b80821115611580576000816000905550600101611568565b5090565b6000604051905090565b600080fd5b600080fd5b600073ffffffffffffffffffffffffffffffffffffffff82169050919050565b60006115c382611598565b9050919050565b6115d3816115b8565b81146115de57600080fd5b50565b6000813590506115f0816115ca565b92915050565b6000819050919050565b611609816115f6565b811461161457600080fd5b50565b60008135905061162681611600565b92915050565b600080604083850312156116435761164261158e565b5b6000611651858286016115e1565b925050602061166285828601611617565b9150509250929050565b6000602082840312156116825761168161158e565b5b600061169084828501611617565b91505092915050565b600080fd5b600080fd5b6000601f19601f8301169050919050565b7f4e487b7100000000000000000000000000000000000000000000000000000000600052604160045260246000fd5b6116ec826116a3565b810181811067ffffffffffffffff8211171561170b5761170a6116b4565b5b80604052505050565b600061171e611584565b905061172a82826116e3565b919050565b600067ffffffffffffffff82111561174a576117496116b4565b5b611753826116a3565b9050602081019050919050565b82818337600083830152505050565b600061178261177d8461172f565b611714565b90508281526020810184848401111561179e5761179d61169e565b5b6117a9848285611760565b509392505050565b600082601f8301126117c6576117c5611699565b5b81356117d684826020860161176f565b91505092915050565b600080604083850312156117f6576117f561158e565b5b6000611804858286016115e1565b925050602083013567ffffffffffffffff81111561182557611824611593565b5b611831858286016117b1565b9150509250929050565b611844816115f6565b82525050565b600060208201905061185f600083018461183b565b92915050565b60006020828403121561187b5761187a61158e565b5b6000611889848285016115e1565b91505092915050565b600081519050919050565b600082825260208201905092915050565b60005b838110156118cc5780820151818401526020810190506118b1565b838111156118db576000848401525b50505050565b60006118ec82611892565b6118f6818561189d565b93506119068185602086016118ae565b61190f816116a3565b840191505092915050565b611923816115b8565b82525050565b6000606082019050818103600083015261194381866118e1565b9050611952602083018561191a565b61195f604083018461183b565b949350505050565b60008115159050919050565b61197c81611967565b82525050565b60006080820190506119976000830187611973565b6119a4602083018661191a565b6119b1604083018561183b565b6119be606083018461183b565b95945050505050565b60006020820190506119dc600083018461191a565b92915050565b7f496e76616c696420726571756573742e00000000000000000000000000000000600082015250565b6000611a1860108361189d565b9150611a23826119e2565b602082019050919050565b60006020820190508181036000830152611a4781611a0b565b9050919050565b7f4e487b7100000000000000000000000000000000000000000000000000000000600052601160045260246000fd5b6000611a88826115f6565b9150611a93836115f6565b925082821015611aa657611aa5611a4e565b5b828203905092915050565b7f496e73756666696369656e742062616c616e636520696e2077616c6c65742e00600082015250565b6000611ae7601f8361189d565b9150611af282611ab1565b602082019050919050565b60006020820190508181036000830152611b1681611ada565b9050919050565b6000611b28826115f6565b9150611b33836115f6565b9250827fffffffffffffffffffffffffffffffffffffffffffffffffffffffffffffffff03821115611b6857611b67611a4e565b5b828201905092915050565b6000604082019050611b88600083018561183b565b611b95602083018461183b565b9392505050565b7f4f6e6c79204f776e65722063616e20616464205369676e65722e000000000000600082015250565b6000611bd2601a8361189d565b9150611bdd82611b9c565b602082019050919050565b60006020820190508181036000830152611c0181611bc5565b9050919050565b7f5369676e657220616c72656164792061646465642e0000000000000000000000600082015250565b6000611c3e60158361189d565b9150611c4982611c08565b602082019050919050565b60006020820190508181036000830152611c6d81611c31565b9050919050565b60006020820190508181036000830152611c8e81846118e1565b905092915050565b7f496e76616c69642064656c65676174652e000000000000000000000000000000600082015250565b6000611ccc60118361189d565b9150611cd782611c96565b602082019050919050565b60006020820190508181036000830152611cfb81611cbf565b9050919050565b7f53656c662d64656c65676174696f6e20697320646973616c6c6f7765642e0000600082015250565b6000611d38601e8361189d565b9150611d4382611d02565b602082019050919050565b60006020820190508181036000830152611d6781611d2b565b9050919050565b7f466f756e64206c6f6f7020696e2064656c65676174696f6e2e00000000000000600082015250565b6000611da460198361189d565b9150611daf82611d6e565b602082019050919050565b60006020820190508181036000830152611dd381611d97565b9050919050565b7f4e487b7100000000000000000000000000000000000000000000000000000000600052602260045260246000fd5b60006002820490506001821680611e2157607f821691505b60208210811415611e3557611e34611dda565b5b50919050565b6000611e46826115f6565b9150611e51836115f6565b9250817fffffffffffffffffffffffffffffffffffffffffffffffffffffffffffffffff0483118215151615611e8a57611e89611a4e565b5b82820290509291505056fea264697066735822122059a67d581a1243e5f6b13744340f337140c21c4a3020aed3622033a8ff4f25ee64736f6c63430008090033",
    "linkReferences": {},
    "deployedLinkReferences": {}
}